:100000000C94DE0D0C94570E0C94570E0C94570E56
:100010000C94570E0C94570E0C94570E0C94570ECC
:100020000C94570E0C94570E0C94570E0C94570EBC
:100030000C94570E0C94B20E0C94F10E0C94570EB7
:100040000C94570E0C94570E0C94570E0C94570E9C
:100050000C94570E0C94570E0C94570E0C94570E8C
:100060000C94570E0C94570E0C94570E0C94570E7C
:100070005A5501200101003808000000000000006E
:100080000000000000000000000000000000000070
:10009000810045005DFF5E1027FF2AD22B7D210CD9
:1000A00022FB850084008903888D81096F02444208
:1000B00047004501B083B300B10124B925578A1D1B
:1000C0008B037E11811189118D1194119C11A11145
:1000D000A611A911B911BC11BF11FA11FD1100121D
:1000E00000408891D2E4ADB5B6BEBFFF000000006D
:1000F0000000000000000000000000000000000000
:1001000000000000000000000000000000000000EF
:1001100000000000000000000000000000000000DF
:1001200000000000000000000000000000000000CF
:1001300000000000000000000000000000000000BF
:100140000000FF0000000000FF0000000000FF00B2
:1001500000000000FF0000000000FF0000000000A1
:10016000000000000000FF00000000000000000090
:10017000000000000000000000000000000000007F
:10018000000000FF00FF000000FF00FF000000FF74
:1001900000FF000000000000000000000000000060
:1001A000000000000000000000000000000000004F
:1001B000000000000000000000000000000000003F
:1001C000000000000000000000000000000000002F
:1001D00000000000000000FF00FF0000FFFFFFFF25
:1001E000FF0000FF00FF000000FF00FF0000FFFF16
:1001F000FFFFFF0000FF00FF000000000000000004
:1002000000000000000000000000000000000000EE
:1002100000000000FF00000000FFFFFF0000FF00E3
:10022000FF00FF00FF00FF00000000FFFFFF0000D5
:100230000000FF00FF00FF00FF00FF0000FFFFFFC6
:1002400000000000FF0000000000000000000000AF
:10025000000000000000000000000000000000009E
:10026000FFFF0000FF00FFFF0000FF00000000FF95
:1002700000000000FF00000000FF00000000FF0081
:1002800000FFFF00FF0000FFFF0000000000000073
:10029000000000000000000000000000000000005E
:1002A000000000000000000000FF00000000FF0050
:1002B000FF000000FF00FF00000000FF0000000042
:1002C000FF00FF00FF00FF0000FF000000FFFF0035
:1002D000FF0000000000000000000000000000001F
:1002E000000000000000000000000000FF0000000F
:1002F0000000FF0000000000FF0000000000000000
:1003000000000000000000000000000000000000ED
:1003100000000000000000000000000000000000DD
:1003200000000000000000000000000000000000CD
:100330000000000000FF00000000FF0000000000BF
:10034000FF00000000FF0000000000FF00000000B0
:1003500000FF000000000000FF0000000000FF00A0
:100360000000000000FF000000000000000000008E
:100370000000000000000000000000FF000000007E
:100380000000FF0000000000FF000000000000FF70
:100390000000000000FF0000000000FF000000005F
:1003A000FF0000000000FF00000000FF0000000050
:1003B000000000000000000000000000000000003D
:1003C00000000000000000000000FF000000FF002F
:1003D000FF00FF0000FFFFFF00000000FF00000023
:1003E00000FFFFFF0000FF00FF00FF000000FF0014
:1003F00000000000000000000000000000000000FD
:1004000000000000000000000000000000000000EC
:100410000000000000000000FF0000000000FF00DE
:100420000000FFFFFFFFFF000000FF0000000000D2
:10043000FF000000000000000000000000000000BD
:1004400000000000000000000000000000000000AC
:10045000000000000000000000000000000000009C
:10046000000000000000000000000000000000008C
:1004700000000000000000FFFF00000000FFFF0080
:100480000000FFFF0000000000000000000000006E
:10049000000000000000000000000000000000005C
:1004A000000000000000000000000000000000004C
:1004B0000000FFFFFFFFFF00000000000000000041
:1004C000000000000000000000000000000000002C
:1004D000000000000000000000000000000000001C
:1004E000000000000000000000000000000000000C
:1004F00000000000000000000000000000000000FC
:1005000000000000000000FFFF00000000FFFF00EF
:1005100000000000000000000000000000000000DB
:1005200000000000000000000000000000000000CB
:1005300000000000FF00000000FF0000000000FFBE
:1005400000000000FF00000000FF0000000000FFAE
:1005500000000000FF00000000000000000000009C
:10056000000000000000000000000000000000008B
:1005700000000000000000000000FFFF000000FF7E
:100580000000FF0000FF0000FF0000FF0000FF0070
:1005900000FF0000FF0000FF0000FF000000FFFF61
:1005A000000000000000000000000000000000004B
:1005B000000000000000000000000000000000003B
:1005C0000000FF00000000FFFF0000000000FF002F
:1005D00000000000FF0000000000FF00000000001D
:1005E000FF00000000FFFFFF00000000000000000F
:1005F00000000000000000000000000000000000FB
:10060000000000000000000000FFFFFF0000FF00EE
:100610000000FF0000000000FF00000000FF0000DD
:100620000000FF00000000FF00000000FFFFFFFFD0
:10063000FF000000000000000000000000000000BB
:1006400000000000000000000000000000000000AA
:10065000FFFFFFFFFF0000000000FF00000000FFA1
:1006600000000000FFFF000000000000FF00FF008E
:100670000000FF0000FFFFFF00000000000000007E
:10068000000000000000000000000000000000006A
:100690000000000000000000000000FF000000005B
:1006A000FFFF000000FF00FF0000FF0000FF000050
:1006B000FFFFFFFFFF00000000FF0000000000FF41
:1006C000000000000000000000000000000000002A
:1006D000000000000000000000000000000000001A
:1006E000FFFFFFFFFF00FF0000000000FFFFFFFF14
:1006F000000000000000FF0000000000FF00FF00FD
:100700000000FF0000FFFFFF0000000000000000ED
:1007100000000000000000000000000000000000D9
:1007200000000000000000000000FFFF000000FFCC
:1007300000000000FF0000000000FFFFFFFF0000BE
:10074000FF000000FF00FF000000FF0000FFFFFFB0
:100750000000000000000000000000000000000099
:100760000000000000000000000000000000000089
:10077000FFFFFFFFFF0000000000FF00000000FF80
:100780000000000000FF00000000FF00000000006B
:10079000FF0000000000FF0000000000000000005B
:1007A0000000000000000000000000000000000049
:1007B000000000000000000000FFFFFF0000FF003D
:1007C0000000FF00FF000000FF0000FFFFFF00002F
:1007D000FF000000FF00FF000000FF0000FFFFFF20
:1007E0000000000000000000000000000000000009
:1007F00000000000000000000000000000000000F9
:1008000000FFFFFF0000FF000000FF00FF000000EE
:10081000FF0000FFFFFFFF0000000000FF000000DE
:1008200000FF000000FFFF000000000000000000CB
:1008300000000000000000000000000000000000B8
:1008400000000000000000000000000000000000A8
:100850000000000000FFFF00000000FFFF0000009C
:1008600000000000000000FFFF00000000FFFF008C
:100870000000000000000000000000000000000078
:100880000000000000000000000000000000000068
:1008900000000000000000000000000000FFFF005A
:1008A000000000FFFF00000000000000000000FF4B
:1008B000FF00000000FFFF000000FFFF000000003D
:1008C0000000000000000000000000000000000028
:1008D0000000000000000000000000000000000018
:1008E00000FF00000000FF00000000FF000000000B
:1008F0000000FF000000000000FF000000000000FA
:1009000000000000000000000000000000000000E7
:1009100000000000000000000000000000000000D7
:10092000000000000000000000000000FFFFFFFFCB
:10093000FF00000000000000FFFFFFFFFF000000BD
:1009400000000000000000000000000000000000A7
:100950000000000000000000000000000000000097
:10096000000000000000000000000000000000FF88
:10097000000000000000FF000000000000FF000079
:100980000000FF00000000FF000000000000000069
:100990000000000000000000000000000000000057
:1009A0000000000000000000000000000000000047
:1009B00000FFFFFF0000FF000000FF00000000FF3D
:1009C00000000000FF0000000000FF000000000029
:1009D000000000000000FF00000000000000000018
:1009E0000000000000000000000000000000000007
:1009F000000000000000000000FFFFFF0000FF00FB
:100A00000000FF00FF00FFFFFF00FF00FF00FF00EE
:100A1000FF00FFFFFF00FF000000000000FFFFFFDE
:100A200000000000000000000000000000000000C6
:100A300000000000000000000000000000000000B6
:100A400000FFFFFF0000FF000000FF00FF000000AC
:100A5000FF00FFFFFFFFFF00FF000000FF00FF009F
:100A60000000FF00FF000000FF0000000000000089
:100A70000000000000000000000000000000000076
:100A80000000000000000000FFFFFFFF000000FF6B
:100A90000000FF0000FF0000FF0000FFFFFF00005C
:100AA00000FF0000FF0000FF0000FF00FFFFFFFF4E
:100AB0000000000000000000000000000000000036
:100AC0000000000000000000000000000000000026
:100AD00000FFFFFF0000FF000000FF00FF0000001C
:100AE0000000FF0000000000FF0000000000FF0009
:100AF0000000FF0000FFFFFF0000000000000000FA
:100B000000000000000000000000000000000000E5
:100B10000000000000000000FFFFFFFF000000FFDA
:100B20000000FF0000FF0000FF0000FF0000FF00CA
:100B300000FF0000FF0000FF0000FF00FFFFFFFFBD
:100B400000000000000000000000000000000000A5
:100B50000000000000000000000000000000000095
:100B6000FFFFFFFFFF00FF0000000000FF0000008C
:100B70000000FFFFFFFF0000FF0000000000FF007B
:100B800000000000FFFFFFFFFF000000000000006A
:100B90000000000000000000000000000000000055
:100BA0000000000000000000FFFFFFFFFF00FF004B
:100BB00000000000FF0000000000FFFFFFFF00003A
:100BC000FF0000000000FF0000000000FF00000028
:100BD0000000000000000000000000000000000015
:100BE0000000000000000000000000000000000005
:100BF00000FFFFFF0000FF000000FF00FF000000FB
:100C00000000FF0000000000FF0000FFFF00FF00E9
:100C10000000FF0000FFFFFF0000000000000000D8
:100C200000000000000000000000000000000000C4
:100C30000000000000000000FF000000FF00FF00B7
:100C40000000FF00FF000000FF00FFFFFFFFFF00AC
:100C5000FF000000FF00FF000000FF00FF00000099
:100C6000FF00000000000000000000000000000085
:100C70000000000000000000000000000000000074
:100C800000FFFFFF00000000FF0000000000FF0069
:100C900000000000FF0000000000FF000000000056
:100CA000FF00000000FFFFFF000000000000000048
:100CB0000000000000000000000000000000000034
:100CC00000000000000000000000FFFFFF00000027
:100CD00000FF0000000000FF0000000000FF000017
:100CE000000000FF0000FF0000FF000000FFFF0009
:100CF00000000000000000000000000000000000F4
:100D000000000000000000000000000000000000E3
:100D1000FF000000FF00FF0000FF0000FF00FF00D9
:100D20000000FFFF00000000FF00FF000000FF00C8
:100D300000FF0000FF000000FF00000000000000B6
:100D400000000000000000000000000000000000A3
:100D50000000000000000000FF0000000000FF0095
:100D600000000000FF0000000000FF000000000085
:100D7000FF0000000000FF0000000000FFFFFFFF79
:100D8000FF00000000000000000000000000000064
:100D90000000000000000000000000000000000053
:100DA000FF000000FF00FFFF00FFFF00FF00FF004B
:100DB000FF00FF000000FF00FF000000FF00FF0039
:100DC0000000FF00FF000000FF0000000000000026
:100DD0000000000000000000000000000000000013
:100DE0000000000000000000FF000000FF00FF0006
:100DF0000000FF00FFFF0000FF00FF00FF00FF00FA
:100E0000FF0000FFFF00FF000000FF00FF000000E8
:100E1000FF000000000000000000000000000000D3
:100E200000000000000000000000000000000000C2
:100E300000FFFFFF0000FF000000FF00FF000000B8
:100E4000FF00FF000000FF00FF000000FF00FF00A8
:100E50000000FF0000FFFFFF000000000000000096
:100E60000000000000000000000000000000000082
:100E70000000000000000000FFFFFFFF0000FF0077
:100E80000000FF00FF000000FF00FFFFFFFF000069
:100E9000FF0000000000FF0000000000FF00000055
:100EA0000000000000000000000000000000000042
:100EB0000000000000000000000000000000000032
:100EC00000FFFFFF0000FF000000FF00FF00000028
:100ED000FF00FF000000FF00FF00FF00FF00FF0019
:100EE00000FF000000FFFF00FF0000000000000006
:100EF00000000000000000000000000000000000F2
:100F00000000000000000000FFFFFFFF0000FF00E6
:100F10000000FF00FF000000FF00FFFFFFFF0000D8
:100F2000FF00FF000000FF0000FF0000FF000000C6
:100F3000FF000000000000000000000000000000B2
:100F400000000000000000000000000000000000A1
:100F500000FFFFFF0000FF000000FF00FF00000097
:100F6000000000FFFFFF000000000000FF00FF0086
:100F70000000FF0000FFFFFF000000000000000075
:100F80000000000000000000000000000000000061
:100F90000000000000000000FFFFFFFFFF00000056
:100FA000FF0000000000FF0000000000FF00000044
:100FB0000000FF0000000000FF0000000000FF0034
:100FC0000000000000000000000000000000000021
:100FD0000000000000000000000000000000000011
:100FE000FF000000FF00FF000000FF00FF00000006
:100FF000FF00FF000000FF00FF000000FF00FF00F7
:101000000000FF0000FFFFFF0000000000000000E4
:1010100000000000000000000000000000000000D0
:101020000000000000000000FF000000FF00FF00C3
:101030000000FF00FF000000FF00FF000000FF00B5
:1010400000FF00FF000000FF00FF00000000FF00A5
:101050000000000000000000000000000000000090
:101060000000000000000000000000000000000080
:10107000FF000000FF00FF000000FF00FF00000075
:10108000FF00FF000000FF00FF00FF00FF00FF0067
:10109000FF00FF0000FF00FF000000000000000054
:1010A0000000000000000000000000000000000040
:1010B0000000000000000000FF000000FF00FF0033
:1010C0000000FF0000FF00FF00000000FF00000024
:1010D00000FF00FF0000FF000000FF00FF00000015
:1010E000FF00000000000000000000000000000001
:1010F00000000000000000000000000000000000F0
:10110000FF000000FF00FF000000FF0000FF00FFE5
:1011100000000000FF0000000000FF0000000000D1
:10112000FF0000000000FF000000000000000000C1
:1011300000000000000000000000000000000000AF
:101140000000000000000000FFFFFFFFFF000000A4
:101150000000FF00000000FF00000000FF00000092
:1011600000FF00000000FF0000000000FFFFFFFF85
:10117000FF00000000000000000000000000000070
:101180000000000000000000000000FFFFFF000062
:1011900000FF0000000000FF0000000000FF000052
:1011A000000000FF0000000000FF0000000000FF42
:1011B0000000000000FF0000000000FFFFFF000033
:1011C000000000000000000000000000000000001F
:1011D0000000000000000000FF000000000000FF11
:1011E0000000000000FF000000000000FF00000001
:1011F000000000FF0000000000FF000000000000F1
:10120000FF000000000000000000000000000000DF
:101210000000000000000000000000FFFFFF0000D1
:10122000000000FF0000000000FF0000000000FFC1
:101230000000000000FF0000000000FF00000000B0
:1012400000FF0000000000FF000000FFFFFF0000A3
:10125000000000000000000000000000000000008E
:1012600000000000FF00000000FF00FF0000FF0082
:101270000000FF000000000000000000000000006F
:10128000000000000000000000000000000000005E
:10129000000000000000000000000000000000004E
:1012A000000000000000000000000000000000003E
:1012B000000000000000000000000000000000002E
:1012C000000000000000000000000000000000001E
:1012D000000000000000000000000000000000000E
:1012E000FFFFFFFFFF000000000000000000000003
:1012F000000000FF000000000000FF0000000000F0
:1013000000FF0000000000000000000000000000DE
:1013100000000000000000000000000000000000CD
:1013200000000000000000000000000000000000BD
:1013300000000000000000000000000000000000AD
:1013400000000000000000000000000000FFFFFFA0
:10135000000000000000FF0000FFFFFFFF00FF0093
:101360000000FF0000FFFFFFFF0000000000000082
:10137000000000000000000000000000000000006D
:101380000000000000000000FF0000000000FF005F
:1013900000000000FFFFFFFF0000FF000000FF0053
:1013A000FF000000FF00FF000000FF00FFFFFFFF45
:1013B000000000000000000000000000000000002D
:1013C000000000000000000000000000000000001D
:1013D00000000000000000000000000000FFFFFF10
:1013E0000000FF000000FF00FF0000000000FF0001
:1013F0000000FF0000FFFFFF0000000000000000F1
:1014000000000000000000000000000000000000DC
:10141000000000000000000000000000FF000000CD
:101420000000FF0000FFFFFFFF00FF000000FF00C3
:10143000FF000000FF00FF000000FF0000FFFFFFB3
:10144000FF0000000000000000000000000000009D
:10145000000000000000000000000000000000008C
:1014600000000000000000000000000000FFFFFF7F
:101470000000FF000000FF00FFFFFFFF0000FF0073
:101480000000000000FFFFFF00000000000000005F
:10149000000000000000000000000000000000004C
:1014A00000000000000000000000FFFF000000FF3F
:1014B0000000FF0000FF00000000FFFFFF00000031
:1014C00000FF0000000000FF0000000000FF00001F
:1014D000000000000000000000000000000000000C
:1014E00000000000000000000000000000000000FC
:1014F00000000000000000000000000000FFFFFFEF
:101500000000FF000000FF00FF000000FF00FF00E0
:101510000000FF0000FFFFFFFF0000000000FF00D1
:1015200000FFFFFF000000000000000000000000BE
:101530000000000000000000FF0000000000FF00AD
:1015400000000000FFFFFFFF0000FF000000FF00A1
:10155000FF000000FF00FF000000FF00FF00000090
:10156000FF0000000000000000000000000000007C
:10157000000000000000000000000000000000006B
:101580000000FF00000000000000000000FFFF005E
:1015900000000000FF0000000000FF00000000004D
:1015A000FF00000000FFFFFF00000000000000003F
:1015B000000000000000000000000000000000002B
:1015C000000000000000000000000000FF0000001C
:1015D00000000000000000FFFF0000000000FF000E
:1015E00000000000FF0000000000FF0000000000FD
:1015F000FF0000FF0000FF000000FFFF00000000F0
:1016000000000000000000000000000000000000DA
:10161000FF0000000000FF0000000000FF000000CD
:10162000FF00FF0000FF0000FFFFFF000000FF00C1
:1016300000FF0000FF000000FF00000000000000AD
:10164000000000000000000000000000000000009A
:10165000000000000000000000FFFF00000000008C
:10166000FF0000000000FF0000000000FF0000007D
:101670000000FF0000000000FF00000000FFFFFF6F
:10168000000000000000000000000000000000005A
:10169000000000000000000000000000000000004A
:1016A000000000000000000000000000FFFF00FF3D
:1016B0000000FF00FF00FF00FF00FF00FF00FF0031
:1016C000FF00FF00FF00FF00FF000000000000001F
:1016D000000000000000000000000000000000000A
:1016E00000000000000000000000000000000000FA
:1016F00000000000FF00FFFF0000FFFF0000FF00F0
:10170000FF000000FF00FF000000FF00FF000000DE
:10171000FF000000000000000000000000000000CA
:1017200000000000000000000000000000000000B9
:1017300000000000000000000000000000FFFFFFAC
:101740000000FF000000FF00FF000000FF00FF009E
:101750000000FF0000FFFFFF00000000000000008D
:101760000000000000000000000000000000000079
:101770000000000000000000000000000000000069
:1017800000000000FFFFFFFF0000FF000000FF005F
:10179000FF000000FF00FF000000FF00FFFFFFFF51
:1017A0000000FF0000000000FF000000000000003B
:1017B0000000000000000000000000000000000029
:1017C00000000000000000000000000000FFFFFF1C
:1017D000FF00FF000000FF00FF000000FF00FF000F
:1017E0000000FF0000FFFFFFFF0000000000FF00FF
:1017F00000000000FF0000000000000000000000EA
:1018000000000000000000000000000000000000D8
:1018100000000000FF00FFFF0000FFFF0000FF00CE
:10182000FF0000000000FF0000000000FF000000BB
:1018300000000000000000000000000000000000A8
:101840000000000000000000000000000000000098
:1018500000000000000000000000000000FFFFFF8B
:10186000FF00FF000000000000FFFFFF000000007D
:101870000000FF00FFFFFFFF00000000000000006D
:101880000000000000000000000000000000000058
:1018900000000000000000000000FF000000000049
:1018A000FF000000FFFFFFFFFF000000FF0000003F
:1018B0000000FF0000000000FF000000000000FF2B
:1018C000FF00000000000000000000000000000019
:1018D0000000000000000000000000000000000008
:1018E000000000000000000000000000FF000000F9
:1018F000FF00FF000000FF00FF000000FF00FF00EE
:1019000000FFFF0000FFFF00FF00000000000000DC
:1019100000000000000000000000000000000000C7
:1019200000000000000000000000000000000000B7
:1019300000000000FF000000FF00FF000000FF00AB
:10194000FF000000FF0000FF00FF00000000FF009C
:101950000000000000000000000000000000000087
:101960000000000000000000000000000000000077
:10197000000000000000000000000000FF00000068
:10198000FF00FF000000FF00FF00FF00FF00FF005E
:10199000FF00FF0000FF00FF00000000000000004B
:1019A0000000000000000000000000000000000037
:1019B0000000000000000000000000000000000027
:1019C00000000000FF000000FF0000FF00FF00001B
:1019D0000000FF00000000FF00FF0000FF0000000B
:1019E000FF000000000000000000000000000000F8
:1019F00000000000000000000000000000000000E7
:101A0000000000000000000000000000FF000000D7
:101A1000FF00FF000000FF00FF000000FF0000FFCC
:101A200000FF00000000FF00000000FF00000000B9
:101A3000FF000000000000000000000000000000A7
:101A40000000000000000000000000000000000096
:101A500000000000FFFFFFFFFF00000000FF00008C
:101A60000000FF00000000FF00000000FFFFFFFF7C
:101A7000FF00000000000000000000000000000067
:101A800000000000000000000000000000FF000057
:101A90000000FF0000000000FF0000000000FF0049
:101AA000000000FF000000000000FF000000000038
:101AB000FF0000000000FF000000000000FF000029
:101AC0000000000000000000000000000000000016
:101AD00000000000FF0000000000FF000000000008
:101AE000FF0000000000FF0000000000FF000000F9
:101AF0000000FF0000000000FF0000000000FF00E9
:101B000000000000FF0000000000000000000000D6
:101B10000000000000000000000000FF00000000C6
:101B20000000FF0000000000FF0000000000FF00B8
:101B30000000000000FF00000000FF0000000000A7
:101B4000FF0000000000FF00000000FF0000000098
:101B50000000000000000000000000000000000085
:101B60000000000000000000000000000000000075
:101B70000000000000FF0000FF00FF00FF00FF006A
:101B8000FF0000FF00000000000000000000000057
:101B90000000000000000000000000000000000045
:101BA0000000000053636F7265004845414C544883
:101BB00000452E4850004D4F4E45590011241FBE80
:101BC000CFEFD0E1DEBFCDBF11E0A0E0B1E0ECE8A7
:101BD000F5E402C005900D92A632B107D9F729E0CD
:101BE000A6E2B1E001C01D92AB3CB207E1F714BE22
:101BF0000FB6F894A895809160008861809360008A
:101C0000109260000FBEF89480E990E042EC50E042
:101C1000FC0125913491F901FF2730830296481782
:101C20005907B1F70E946711811102C00E94451146
:101C3000E3E1F7E080E8819399E0EF31F907D9F724
:101C400083E197E09093200980931F091092210966
:101C500081E0809338098093390980933709109285
:101C6000240910922A091092300910923609109214
:101C7000FE061092000792E19093FF0698ED909374
:101C8000060794E19093050710920A07109209073E
:101C900010920E0710920D07809323090E94811A5B
:101CA00078940E94801A0E942B1B0C94C4220C94DE
:101CB000000030E03A95F1F731EC3A95F1F7C6E2E1
:101CC000D1E008EDA02E662776E02DD13BE23A95D3
:101CD000F1F70E94910E31E13A95F1F7AA9489F05B
:101CE000C89563956C3029F033E03A95F1F7000020
:101CF000ECCF6627002430E5C30FD01DC895000047
:101D0000E4CF35E03A95F1F700C00DD1E09100073E
:101D100042E0E427E160E0930007E2E0E093360070
:101D20000895DE014D915D91679FC001480F591FD5
:101D3000FA0128E2059108B94D91059108B95D9124
:101D4000059108B900C0059108B9480F591F0591C0
:101D500008B90591FA012A9508B961F7C8950027D5
:101D600008B908950F921F92EF93FF93FFB7E09188
:101D70008400FF93E2FD04C0E1FD02C0000000C04A
:101D8000E0FF00C0E091FF06EA95E093FF06F091C6
:101D9000FE06F0FD51C0EC3098F0F3E0F0938900BE
:101DA000FDE8F0938800E0FB289826F4E1E00E942B
:101DB0007410B2C0E5E1EA95F1F70000289AACC0D2
:101DC000E63008F100C000C02898E0FBE4E016F41B
:101DD0000E947410E4E0E0933600E6E0E0936F00C8
:101DE0009BC0EF93E0918400E2FD04C0E1FD02C0DE
:101DF000000000C0E0FF00C0E2E00000289AE0938D
:101E00006F00EF91189500C0E0FB289826F4E1E000
:101E10000E94741005C0E5E1EA95F1F70000289AE8
:101E2000E091FF06E03009F077C0EDEFE093FF06A8
:101E3000E1E0E093FE0670C0E7E0E0938900EBE1AB
:101E4000E093880000C02898E2E000C00E9474106F
:101E5000FDEF00900507F019E091FF06EF17D8F4A9
:101E6000FDEF00900507F01900900607F019EF1735
:101E700090F0EDE1FF2700800F92EA95E1F70FE186
:101E80000A95F1F700C00E94590EE1E0FF270F907C
:101E90000192EE31E0F3E091FF06E03009F03CC042
:101EA0002F933F934F935F936F937F938F939F9362
:101EB000AF93BF9378941124EE27E093FE06E2E1FE
:101EC000E093FF0680910F07909110070196809391
:101ED0000F0790931007E0910107F0910207E115B9
:101EE000F10509F009950E9435110E94821A0E949D
:101EF0009E0F1124E0910307F0910407E115F1050D
:101F000009F00995BF91AF919F918F917F916F914A
:101F10005F914F913F912F91EF91EFBFFF91EF9123
:101F20001F900F9018952898E2E000C00E9474104E
:101F3000E091FF06EA95E093FF060895E0912309FA
:101F4000E0FD0E942A1200902109002019F4A3E16B
:101F5000B7E002C0A9E1B8E021E002260092210921
:101F600022E020932209E0912309E0FF08952F92B7
:101F70003F924F925F926F927F928F929F92AF9219
:101F8000BF92CF92DF92EF92FF920F931F93CF9366
:101F9000DF93509136096091380970913909809129
:101FA0003A09209025093090260940902809509040
:101FB0002909609027091091240970902B098090BD
:101FC0002C0990902D09A0902E09B0902F092091F6
:101FD0002A09C0903109D0903209E0903409F0907C
:101FE000350900913309309130099FEF620C431C91
:101FF000F201449141030008C12DD02D970CA81C7B
:10200000F501449142030008C10DD01D0C0DED1CDB
:10201000F701449143030008C10DD01D8A956AF46D
:1020200040913709842F8695062E0694062600FADD
:102030007695679576F940FF66F940E860FD4FE7D1
:1020400045030008C10DD01D0024C038D0050CF098
:10205000CFE70A94C038D0050CF4C0E8C058CD933F
:102060009A9509F0C3CF409122094A9540932209DD
:1020700097E009F0BBCF609227094092280990921F
:102080002D09A0922E0900933309E0923409609340
:1020900038097093390980933A09DF91CF911F91E4
:1020A0000F91FF90EF90DF90CF90BF90AF909F90F7
:1020B0008F907F906F905F904F903F902F900895FA
:1020C000E0911F09F0912009019100000093B300F5
:1020D00009E0EF31F00703E117E008F0F801E093C1
:1020E0001F09F093200908950F931F932F93EF93E7
:1020F000E0911F09F091200901910093B30009E0DC
:10210000EF31F00703E117E008F0F801E0931F0951
:10211000F0932009E8E0EA95F1F7EF912F911F91F4
:102120000F91E0FD289AE0FF01C00895F4E1FA95CF
:10213000F1F700C0E1FD289AE1FF00C00895EAEE42
:10214000F2E0A6E2B1E06091FA067091FB066D93B1
:102150007D933197E1F7112408959927552728E2B7
:10216000220F629F880F080E191EA6E2B1E0A00D93
:10217000B11D6091FA067091FB0628E4429F600D44
:10218000711D6D937C93112408958093FA069093AA
:10219000FB06089580910007817008952091000743
:1021A0002E7F209300070895882329F48091070744
:1021B00090910807089580910B0790910C0708955E
:1021C000E0E6F0E0808183FD089588E198E0F894EE
:1021D000808390837894FFCFF999FECF92BD81BD23
:1021E00060BDF894FA9AF99A78940895F999FECF17
:1021F00092BD81BDF894F89A80B578940895129AAA
:10220000C895C895C895C895129840E180E090E0BF
:1022100020E030E03695279596958795C895C89526
:10222000C895C8951398009B3068019B9068139AD5
:10223000C895C895C895C895415061F7309308076F
:102240002093070790930C0780930B078091070753
:10225000909108070F9731F080910B0790910C0730
:102260000F9711F40C94E0100895109259090099F9
:1022700003C081E080935909019905C080915909F3
:102280008260809359090C94FF10CF93DF93C0E0D4
:10229000D0E0FE01E059FF4F6491CE010E94EC10A6
:1022A0002196C032D105A9F7C0E2D0E06FEFCE0190
:1022B0000E94EC106FEFCE0101960E94EC10A096E8
:1022C000C11588E0D80791F7DF91CF910895CF939A
:1022D00080E090E00E94F610C82F81E090E00E941C
:1022E000F610282F30E0322F22272C0F311D81E0ED
:1022F0002A35354509F080E0CF910895FC016787C4
:102300000895E4E2F9E081E091E0958B848B638BA2
:102310000895FC0182810C94CE14FC019181690F17
:10232000618382810C94B714FC019181961B692F03
:10233000918382810C94B714FC0190819F759083E6
:102340000895FC019081906490830895FC01668754
:1023500008951F93CF93DF93EC01162F8A810E947B
:10236000B71419838881877F8883DF91CF911F916C
:102370000895FC0162870895FC0163870895CF9357
:10238000DF93EC01262F898190E0FC01EE0FFF1F07
:10239000EA52F64D45915491FC01E60FF11D67FD9F
:1023A000FA95EE0FFF1FEA52F64D85919491841B2A
:1023B000950B688570E00E9497206115710511F4F6
:1023C00061E070E0EA8186E0E89FF0011124EC5DB5
:1023D000F64F81819281860F971F928381837E833E
:1023E0006D838881886088838981280F2F83DF919E
:1023F000CF910895FC0160870895FC0164830895DE
:10240000DC0114968C911497882319F155962D911F
:102410003C915697662379F0062E000C770B6F5F80
:102420007F4FAB01440F551F640F751F261B370BE1
:1024300009C0EF3F39F023503109F9013297E49197
:10244000ED30B9F756963C932E93559781501496DC
:102450008C930895EF92FF920F931F93CF93DF9386
:10246000CCE5D9E004E219E09801DE011F968C91D9
:102470001F978823A9F01E964C911E97082E000CDA
:10248000990B840F911D8F3F910519F014F08FEF78
:1024900090E097FF02C080E090E01E968C931E971C
:1024A0006C9163FF26C015964D915C911697F901CA
:1024B00081819281840F951F928381831796EC917D
:1024C0001797F0E0EE0FFF1FEA52F64DE590F490FB
:1024D0001416150624F48E159F0530F40AC0452BFA
:1024E00041F0E816F90628F0F901F282E182677FEF
:1024F0006C9357962A5F3F4FF9E0A83BBF0709F05E
:10250000B5CF80911207882309F4CCC087E1F82E5B
:102510008091B8099091B9092091BE093091BF0905
:102520008217930709F0B9C02091C1093091C209FF
:10253000B9016F5F7F4F7093C2096093C109F901C0
:1025400044914F3F79F5A9014E5F5F4F5093C20907
:102550004093C109FB0164916F3219F41092120784
:102560009CC0663009F08CC0FA014491C901049600
:102570009093C2098093C109F9013396E491E33540
:1025800029F49093C4098093C3097AC0E53409F013
:1025900077C08091C3099091C4099093C209809338
:1025A000C1096EC047FD4093BC099091BC09892FB9
:1025B0008F7047FF08C02E5F3F4F3093C2092093B2
:1025C000C109FB014491907F903BE1F0903C09F4FC
:1025D00051C0903909F054C0E091C109F091C2098D
:1025E0009F012F5F3F4F3093C2092093C10924916F
:1025F000220FF89EF0011124E45AF64F60890E94E0
:1026000077143EC0E091C109F091C2099F012F5F8C
:102610003F4F3093C2092093C109E491473049F4F8
:10262000F89ED0011124A45AB64FEE0F1C96EC93DD
:1026300027C04B3049F4F89ED0011124A45AB64F5C
:10264000EE0F1396EC931CC04C3549F4F89ED00164
:102650001124A45AB64FEE0F1A96EC9311C04436CB
:1026600079F4F89ED0011124A45AB64FEE0F1B96B0
:10267000EC9306C0F89EF0011124E45AF64F408B0B
:1026800081EC99E00E9403149093BF098093BE09E6
:102690001092B9091092B8093BCF01969093B909ED
:1026A0008093B809EE24EA94F12C888185FF37C025
:1026B0002D893E89232B09F432C086FD30C09B89C9
:1026C0008A8998132AC0ED89FE89BF016F5F7F4F09
:1026D0007E8B6D8B84918F3F31F488818F778883D7
:1026E0001E8A1D8A1AC03296FE8BED8BFB01649107
:1026F000E82FF0E0EE0FFF1FEE53FF4F25913491CE
:10270000CE01F9010995ED89FE89CF0101969E8BD5
:102710008D8BE491EA8B1B8AD2CF9F5F9B8B988134
:1027200095FF5EC08C898F3F11F08F5F8C8B97FD7A
:1027300002C09C8501C09FEF8D854985882309F4DF
:1027400049C06E85662309F445C0992309F442C047
:102750005091BD09552309F43DC0899FC001112442
:102760009395892F9927689F9001699F300D1124B7
:102770003395232F33276B81629FC001639F900D98
:1027800011249395892F9927589F9001599F300DB7
:1027900011243395232F33278A858823E9F0E42FEA
:1027A000F0E0E050F54DE491E0588E9FF0011124E7
:1027B000F395EF2FFF27B7016E1B7F0B629FC001C0
:1027C000639F900D729F900D11249C013395232FD0
:1027D000332702C020E030E08B85480F498702C0D4
:1027E00020E030E0F801208367960A5F1F4FF9E090
:1027F000C83BDF0709F059CFDF91CF911F910F91AF
:10280000FF90EF900895DC01ED91FC9111979F01ED
:102810002F5F3F4F11963C932E93E491E7FD03C049
:102820008E2F90E00895EF778E2F90E09695982F59
:102830008827979587952F5F3F4FF9013197E4914E
:102840004E2F4F77840F911DE7FDF0CF2D933C93D2
:1028500008950F931F93CF93DF93EC01162F888178
:10286000082F00781F869FEF9E874D871C8A877BE5
:1028700088831A86198629831C829B838A818330E8
:1028800069F4011101C0122F81E091E090933909A0
:102890008093380981E08093370907C0622F0E9436
:1028A000B71460E08A810E94CE14002311F0198BC6
:1028B00001C0188BE091BA09F091BB0989E0189F1B
:1028C000E00DF11D1124339685919491009719F430
:1028D0001E8A1D8A07C01B8AFC0124912A8B01963F
:1028E0009E8B8D8BDF91CF911F910F910895CF9388
:1028F000DF93A82FB0E097E1899FF0011124E45AFB
:10290000F64F808185FF02C087FD2EC0211118C0BF
:1029100097E19A9FF0019B9FF00D1124E45AF64F26
:102920009785911102C086FF158697E19A9FF00165
:102930009B9FF00D1124E45AF64F8F7B808314C0C7
:10294000822F242F97E19A9FE0019B9FD00D1124A5
:10295000C45AD64F18821E8A1D8A482FCE010E9463
:102960002914888180628883DF91CF910895992707
:102970007727833008F00895E6EDF9E2660F771FB8
:10298000E60FF71FA591B491E4E2F9E026E0289F55
:10299000E00DF11DA183B2831124089599277727B3
:1029A000E4E2F9E026E0289FE00DF11D6E3F31F4EE
:1029B000609137096E7F609337090BC06F3F31F428
:1029C000609137096E6F6093370903C07BE2760F21
:1029D00075831124089522002400260028002B006E
:1029E0002D0030003300360039003D004000440027
:1029F00048004C00510056005B00600066006C000F
:102A0000730079008100880090009900A200AC005A
:102A1000B600C100CC00D800E500F30001011001B0
:102A200021013201440157016C0181019801B0017B
:102A3000CA01E50102022102410264028802AE02DB
:102A4000D7020303300361039403CB03050442045C
:102A50008304C70410055D05AF0505066106C206BF
:102A6000290796070908830805098E09200ABA0A6A
:102A70005D0B0A0CC10C840D510E2B0F12100711A7
:102A80000A121D1340147415BA1614188319071B63
:102A9000A31C571E24200E22142439267F28E82A3E
:102AA000752D293006330F364539AD3C49401B445E
:102AB0002848734CFE50CF55EA5A51600C661D6C85
:102AC0008B725A79928037885090E598FDA19FAB20
:102AD000D3B5A3C00000000000000000000000000B
:102AE00000000000000000000000000000000000E6
:102AF00000000000000000000000000000000000D6
:102B0000000306090C101316191C1F2225282B2E52
:102B1000313336393C3F414447494C4E5153555867
:102B20005A5C5E60626466686A6B6D6F7071737424
:102B3000757678797A7A7B7C7D7D7E7E7E7F7F7FDD
:102B40007F7F7F7F7E7E7E7D7D7C7B7A7A797876C3
:102B500075747371706F6D6B6A68666462605E5CD9
:102B60005A585553514E4C494744413F3C393633EE
:102B7000312E2B2825221F1C191613100C090603B1
:102B800000FDFAF7F4F0EDEAE7E4E1DEDBD8D5D2B8
:102B9000CFCDCAC7C4C1BFBCB9B7B4B2AFADABA883
:102BA000A6A4A2A09E9C9A9896959391908F8D8CA6
:102BB0008B8A8887868685848383828282818181CD
:102BC0008181818182828283838485868687888AC7
:102BD0008B8C8D8F9091939596989A9C9EA0A2A491
:102BE000A6A8ABADAFB2B4B7B9BCBFC1C4C7CACD5C
:102BF000CFD2D5D8DBDEE1E4E7EAEDF0F4F7FAFD79
:102C0000808182838485868788898A8B8C8D8E8F4C
:102C1000909192939495969798999A9B9C9D9E9F3C
:102C2000A0A1A2A3A4A5A6A7A8A9AAABACADAEAF2C
:102C3000B0B1B2B3B4B5B6B7B8B9BABBBCBDBEBF1C
:102C4000C0C1C2C3C4C5C6C7C8C9CACBCCCDCECF0C
:102C5000D0D1D2D3D4D5D6D7D8D9DADBDCDDDEDFFC
:102C6000E0E1E2E3E4E5E6E7E8E9EAEBECEDEEEFEC
:102C7000F0F1F2F3F4F5F6F7F8F9FAFBFCFDFEFFDC
:102C8000000102030405060708090A0B0C0D0E0FCC
:102C9000101112131415161718191A1B1C1D1E1FBC
:102CA000202122232425262728292A2B2C2D2E2FAC
:102CB000303132333435363738393A3B3C3D3E3F9C
:102CC000404142434445464748494A4B4C4D4E4F8C
:102CD000505152535455565758595A5B5C5D5E5F7C
:102CE000606162636465666768696A6B6C6D6E6F6C
:102CF000707172737475767778797A7B7C7D7E7F5C
:102D000000020406080A0C0E10121416181A1C1ED3
:102D100020222426282A2C2E30323436383A3C3EC3
:102D200040424446484A4C4E50525456585A5C5EB3
:102D300060626466686A6C6E70727476787A7C7EA3
:102D40007F7D7B79777573716F6D6B696765636183
:102D50005F5D5B59575553514F4D4B494745434173
:102D60003F3D3B39373533312F2D2B292725232163
:102D70001F1D1B19171513110F0D0B090705030153
:102D8000FFFDFBF9F7F5F3F1EFEDEBE9E7E5E3E143
:102D9000DFDDDBD9D7D5D3D1CFCDCBC9C7C5C3C133
:102DA000BFBDBBB9B7B5B3B1AFADABA9A7A5A3A123
:102DB0009F9D9B99979593918F8D8B898785838113
:102DC00080828486888A8C8E90929496989A9C9E13
:102DD000A0A2A4A6A8AAACAEB0B2B4B6B8BABCBE03
:102DE000C0C2C4C6C8CACCCED0D2D4D6D8DADCDEF3
:102DF000E0E2E4E6E8EAECEEF0F2F4F6F8FAFCFEE3
:102E00007F7F7F7F7F7F7F7F7F7F7F7F7F7F7F7FD2
:102E10007F7F7F7F7F7F7F7F7F7F7F7F7F7F7F7FC2
:102E20007F7F7F7F7F7F7F7F7F7F7F7F7F7F7F7FB2
:102E30007F7F7F7F7F7F7F7F7F7F7F7F7F7F7F7FA2
:103100000309131E28313A40464C5054585B5E6107
:10311000636567696B6C6E6F7071727374757677C7
:10312000777879797A7A7B7B7C7C7C7D7D7D7E7EED
:103130007E7E7F7F7F7F7F7F7F7F7F7F7F7F7F7FA1
:103140007F7F7F7F7F7F7F7F7F7F7F7F7F7E7E7E92
:103150007E7D7D7D7C7C7C7B7B7A7A7979787777C4
:10316000767574737271706F6E6C6B69676563618D
:103170005E5B5854504C46403A31281E13090300F8
:10318000C6CCD5DBDFE3E5E7E9EAEBECEDEEEFEF0C
:10319000F0F0F0F1F1F1F1F2F2F2F2F2F2F2F2F318
:1031A000F3F3F3F3F3F3F3F3F3F3F3F3F3F3F3F3EF
:1031B000F3F3F3F3F3F3F3F3F3F3F3F3F3F3F3F3DF
:1031C000F3F3F3F3F3F3F3F3F3F3F3F3F3F3F3F3CF
:1031D000F3F3F3F3F3F3F3F3F3F3F3F3F3F3F3F3BF
:1031E000F2F2F2F2F2F2F2F2F1F1F1F1F0F0F0EFCC
:1031F000EFEEEDECEBEAE9E7E5E3DFDBD5CCC6008B
:1032000000283D42302D2C2B2C2D2E2F30323335E3
:1032100037393B3D3F414345484A4C4E5053555743
:10322000595B5D5F61636567696B6C6E7071737428
:10323000757778797A7B7C7D7D7E7E7F7F7F7F7FCF
:103240007F7F7F7F7F7F7E7E7D7D7C7B7A797877B5
:1032500075747371706E6C6B69676563615F5D5BDC
:1032600059575553504E4C4A484543413F3D3B39D1
:1032700037353332302F2E2D2C2B2C2D30423D283C
:1032800000E9E5FED4D7D7D7D6D4D2D0CECCCAC8A1
:10329000C6C3C1BFBDBAB8B6B4B1AFADABA9A7A5DF
:1032A000A3A19F9E9C9A999795949391908F8D8CB2
:1032B0008B8A8988888786858584848483838383B1
:1032C0008383838383848484858586878888898AA9
:1032D0008B8C8D8F909193949597999A9C9E9FA19A
:1032E000A3A5A7A9ABADAFB1B4B6B8BABDBFC1C3B2
:1032F000C6C8CACCCED0D2D4D6D7D7D7D4FEE5E96B
:10330000F9F8F9F5EBE1DDDEE0E2E4E5E6E5E4E23B
:10331000DED9D2CAC1B7ACA299918A868381808056
:103320008182838586888A8C8D8F909293959697DB
:1033300098999A9B9B9C9D9D9D9E9E9E9F9F9F9FC3
:103340009F9F9F9E9E9E9D9D9D9C9B9B9A999897BB
:1033500096959392908F8D8C8A88868583828180C2
:10336000808183868A9199A2ACB7C1CAD2D9DEE2A4
:10337000E4E5E6E5E4E2E0DEDDE1EBF5F9F8F900AD
:103380000708070B151F2322201E1C1B1A1B1C1EBF
:1033900022272E363F49545E676F767A7E7F7F7F85
:1033A0007F7E7D7B7A7876747371706E6D6B6A69DF
:1033B00068676665656464636362626261616161D6
:1033C00061616162626263636364656566676869BF
:1033D0006A6B6D6E7071737476787A7B7D7E7F7F99
:1033E0007F7F7E7A766F675E54493F362E27221E96
:1033F0001C1B1A1B1C1E2022231F150B070807006D
:103400001F313D444E5354565A5F64696E74767949
:103410007C7F7F7F7F7F7F7F7F7F7F7F7F7F7F7FBF
:103420007F7F7F7F7F7F7F7F7F7F7F7F7F7F7F7FAC
:103430007F7F7F7F7F7F7F7F7F7F7F7F7F7F7F7F9C
:103440007F7F7F7F7F7F7F7F7F7F7F7F7F7F7F7F8C
:103450007F7F7F7F7F7F7F7F7F7F7F7F7F7F7F7F7C
:103460007F7F7F7F7F7F7F7F7F7F7F7F7F7F7F7F6C
:103470007F7F7F7F7F7F7F7F7F7F7F7C7871684CBE
:103480002C1C120C0A0B0A05FDF3E9DFD4CAC0B7E5
:10349000AEA69E97918B868582808080808080807A
:1034A000808080808080808080808080808080801C
:1034B000808080808080808080808080808080800C
:1034C00080808080808080808080808080808080FC
:1034D00080808080808080808080808080808080EC
:1034E00080808080808080808080808080808080DC
:1034F000808080808087919DACC4CBD4DDF2FAFAC5
:10350000089508950C94FA1ACF92DF92EF92FF92E9
:103510000F931F93CF93DF93C82ED62F8A01D22EFD
:10352000C0E08AE0E82EF12C2C2D2C1B0115110592
:1035300011F4C11107C0C801B7010E94832040E106
:10354000480F05C0DD2011F040E101C040E06D2FC3
:10355000822F0E94AD10C801B7010E9483208B0109
:10356000CF5FC53009F7DF91CF911F910F91FF9089
:10357000EF90DF90CF900895DF92EF92FF920F933C
:103580001F93CF93DF937C01D62E8A01EC01FE01BD
:10359000EE19FF09E00FF11FE491EE2349F0EF77F8
:1035A00040EE4E0F6D2D8C2F0E94AD102196EFCF67
:1035B000DF91CF911F910F91FF90EF90DF900895D1
:1035C00040520C94AD100F931F93CF93DF938C0157
:1035D000C0E0D0E0C017D10744F40E94CA1088238D
:1035E000E1F30E94CE102196F5CFDF91CF911F918C
:1035F0000F9108958091C809882301F18091C9092C
:10360000811119C08091C6098093C909E091CA0946
:10361000F0E0E152FF4FE491E7B99091CA0980913F
:10362000C709890F8093CA09882311F08D3031F4BE
:103630001092C809089581508093C9090895860F92
:1036400099270895860F99270895860F9927089539
:10365000860F992708958CEE90E00E94C5100E9475
:10366000561B81E090E00E94E31A80E00E94D41093
:10367000909352098093510920915709309158092C
:10368000A9014095509548235923509354094093DC
:1036900053098095909582239323909356098093A4
:1036A00055090E94981B0E943E1EDBCF0F931F936B
:1036B000CF93DF930E94732208E210E0B8010E94CA
:1036C000972090933D0980933C090E947322C2E1A8
:1036D000D0E0BE010E94972090933F0980933E095D
:1036E0001092420910924309109244091092450920
:1036F0000E947322BE010E949720909341098093FB
:1037000040090E947322BE010E94972090934B09AA
:1037100080934A090E947322B8010E9497209093D7
:10372000490980934809DF91CF911F910F91089526
:10373000AF92BF92CF92DF92EF92FF920F931F93BF
:10374000CF93DF9380915309909154098032910572
:10375000E9F04CF48230910581F18031910599F0C6
:10376000019789F513C08038910539F124F480342C
:103770009105F1F028C0811521E0920761F08115D3
:103780009240B1F020C06EEF7FEF02C062E070E0C7
:1037900080E090E016C08091200190912101449733
:1037A00094F085E090E090930101809300010BC0BC
:1037B00060E070E08EEF9FEF04C060E070E082E0B8
:1037C00090E00E94D31F80915109909152099093EB
:1037D00058098093570920914C0930914D092F5F6A
:1037E0003F4F30934D0920934C0980911A019091DD
:1037F0001B01821793070CF040C0209148093091BB
:10380000490940913C0950913D092417350734F48A
:103810002F5F3F4F30934909209348092091480971
:10382000309149094217530734F42150310930933C
:1038300049092093480920914A0930914B09409148
:103840003E0950913F092417350734F42F5F3F4F4D
:1038500030934B0920934A0920914A0930914B0932
:103860004217530734F42150310930934B09209308
:103870004A0910924D0910924C0920914E0930913D
:103880004F09263031052CF0181619066CF40197F3
:1038900007C0232B49F41816190634F08CE291E086
:1038A00090931B0180931A012AE939E949E15EE30B
:1038B00060914209709143098091440990914509B2
:1038C0000E94CE206B017C016093420970934309F2
:1038D00080934409909345098091060190910701D6
:1038E00062E170E0681B790B072E000C880B990BC6
:1038F0000E9472219B01AC01C701B6010E94FE210A
:1039000087FD19C08091040190910501C8E2D0E0C3
:10391000C81BD90B0E947322BE010E94972090936E
:103920004109809340091092420910924309109274
:1039300044091092450920910C0130910D0182E15A
:1039400090E0821B930B2091080130910901281708
:103950003907ACF08091040190910501C8E2D0E0F4
:10396000C81BD90B0E947322BE010E94972090931E
:103970004709809346091092090110920801A0900E
:103980000601B0900701C0900401D090050160913C
:1039900042097091430980914409909145090E9420
:1039A0003A21009140091091410920910201309182
:1039B00003014091000150910101E0913E09F09115
:1039C0003F097B01BF0180913C0990913D090E9414
:1039D000AC1F882381F16FEF7FEF80914E099091AA
:1039E0004F090E94221B9C01215031092D3F3105B6
:1039F00028F490934F0980934E0904C010924F0908
:103A000010924E098091040190910501C8E2D0E026
:103A1000C81BD90B0E947322BE010E94972090936D
:103A20004109809340091092420910924309109273
:103A3000440910924509A0901801B0901901C09056
:103A40001601D0901701E0904A09F0904B090091BF
:103A500048091091490920910201309103014091D8
:103A600000015091010160913E0970913F098091E0
:103A70003C0990913D090E94AC1F882361F16FEFD2
:103A80007FEF80911C0190911D010E941F1B90935C
:103A90001D0180931C0180914E0990914F091816C9
:103AA000190624F010924F0910924E0980911601C8
:103AB00090911701C8E2D0E0C81BD90B0E94732275
:103AC000BE010E9497209093490980934809109263
:103AD0004B0910924A09A0900A01B0900B01C090C6
:103AE0000C01D0900D01E0900801F09009010091C7
:103AF000460910914709209102013091030140913C
:103B000000015091010160913E0970913F0980913F
:103B10003C0990913D090E94AC1F882309F44CC0D8
:103B200061E070E080914E0990914F090E94221B44
:103B300090934F0980934E096FEF7FEF80911E01A4
:103B400090911F010E94251B90931F0180931E01DD
:103B500020914E0930914F091216130624F010924D
:103B60004F0910924E090197853E910520F0109261
:103B70001F0110921E01C2E1D0E080910C019091D2
:103B80000D018E01081B190B0E947322B8010E94BF
:103B90009720909347098093460980910A0190915C
:103BA0000B01C81BD90B0E947322BE010E949720F3
:103BB0009093090180930801A0901401B090150121
:103BC000C0901201D0901301E0901001F09011010B
:103BD00000910E0110910F0120910201309103011B
:103BE000409100015091010160913E0970913F099F
:103BF00080913C0990913D090E94AC1F882399F166
:103C000062E070E080912001909121010E94281BC8
:103C10008436910514F084E690E09093210180931E
:103C200020018091120190911301C2E1D0E0C81BE4
:103C3000D90B0E947322BE010E94972090930F011E
:103C400080930E018091140190911501C8E2D0E09B
:103C5000C81BD90B0E947322BE010E94972090932B
:103C6000110180931001DF91CF911F910F91FF906F
:103C7000EF90DF90CF90BF90AF900895EF92FF92BA
:103C80000F93CF93DF9380911C0190911D010B97AF
:103C90000CF0CBC00E949F1044EA5BE160E070E052
:103CA00081E090E00E94BC1A4AEA5BE161E170E0C9
:103CB00081E090E00E94BC1A41EB5BE161E170E0C1
:103CC00082E190E00E94BC1A46EB5BE160E170E0AB
:103CD00081E090E00E94BC1A4091200150912101A6
:103CE00020E060E170E08BE090E00E94841A409157
:103CF0004E0950914F0920E060E070E08AE090E0CA
:103D00000E94841A40913C0950913D0920E060E0F6
:103D100070E081E190E00E94841A40913E09509148
:103D20003F0920E060E070E086E190E00E94841AA4
:103D300040911C0150911D0120E061E170E08BE099
:103D400090E00E94841A40911E0150911F0120E0D2
:103D500061E170E08EE190E00E94841A20910201FE
:103D600030910301409100015091010160913E09A1
:103D700070913F0900E380913C0990913D090E94B8
:103D80001920E0900601F0900701C0910401D09144
:103D90000501609142097091430980914409909115
:103DA00045090E943A210AE29701AE01809140093B
:103DB000909141090E941920209118013091190118
:103DC000409116015091170160914A0970914B0979
:103DD00008E580914809909149090E941920209195
:103DE0000A0130910B0140910C0150910D0160913D
:103DF0000801709109010FE38091460990914709EC
:103E00000E94192020911401309115014091120156
:103E100050911301609110017091110104E28091A1
:103E20000E0190910F010E94192080911C01909128
:103E30001D01009721F08B3E91050CF440C00E94BB
:103E40009F1049E56AE070E080E190E00E94E01A8E
:103E50004FE46AE070E081E190E00E94E01A45E5FD
:103E60006AE070E082E190E00E94E01A40E26AE0DD
:103E700070E083E190E00E94E01A4CE46AE070E0B8
:103E800084E190E00E94E01A4FE46AE070E085E18E
:103E900090E00E94E01A43E56AE070E086E190E07D
:103EA0000E94E01A45E46AE070E087E190E00E9439
:103EB000E01A80EF90E090931D0180931C018091A7
:103EC0004E0990914F0908970CF440C080911E0153
:103ED00090911F0118161906CCF10E949F1049E518
:103EE0006AE070E080E190E00E94E01A4FE46AE04E
:103EF00070E081E190E00E94E01A45E56AE070E040
:103F000082E190E00E94E01A40E26AE070E083E122
:103F100090E00E94E01A47E56AE070E084E190E0FA
:103F20000E94E01A49E46AE070E085E190E00E94B6
:103F3000E01A4EE46AE070E086E190E00E94E01A48
:103F400086EE90E090934F0980934E09DF91CF91D8
:103F50000F91FF90EF900895AF92BF92CF92DF92B2
:103F6000EF92FF920F931F93480F591F401751076D
:103F700084F0260F371F2E153F055CF0C00ED11EB2
:103F8000C816D90634F0AE0CBF1C81E0A616B706E1
:103F90000CF480E01F910F91FF90EF90DF90CF9095
:103FA000BF90AF900895EF92FF920F931F93CF931E
:103FB000DF9300913C0910913D09F801E80FF91FCA
:103FC000F0933D09E0933C09C0913E09D0913F092F
:103FD0009E01260F371F30933F0920933E09F7FDBE
:103FE00019C0E0900001F090010186E090E0B70177
:103FF0000E949720E60FF71FB89764F437FD0AC0B8
:104000008CE090E0B7010E949720260F371F2231E5
:10401000310544F010933D0900933C09D0933F09CA
:10402000C0933E09DF91CF911F910F91FF90EF90C8
:1040300008955F926F927F928F929F92AF92BF92FC
:10404000CF92DF92EF92FF920F931F93CF93DF9364
:10405000883291050CF047C0623171050CF043C005
:10406000502E4901EA017B018C013C016B01C20E1B
:10407000D31E560181E0A81AB108C301801B910B21
:104080008C179D07B4F488E2681671042CF4452D52
:10409000B701C3010E94E01A83E1C816D1042CF4D1
:1040A000452DB501C3010E94E01A8FEF681A780A06
:1040B000E4CFCC24C394D12CC00FD11F2197C814B6
:1040C000D9048CF45701AC0CBD1C452DB501C801B9
:1040D0000E94E01A452DB501CE010E94E01A8FEF33
:1040E000C81AD80AECCFDF91CF911F910F91FF90A2
:1040F000EF90DF90CF90BF90AF909F908F907F9088
:104100006F905F900895AA1BBB1B51E107C0AA1FC7
:10411000BB1FA617B70710F0A61BB70B881F991F68
:104120005A95A9F780959095BC01CD01089597FB0C
:10413000072E16F4009407D077FD09D00E94832043
:1041400007FC05D03EF4909581959F4F089570959A
:1041500061957F4F0895A1E21A2EAA1BBB1BFD019A
:104160000DC0AA1FBB1FEE1FFF1FA217B307E40756
:10417000F50720F0A21BB30BE40BF50B661F771FAE
:10418000881F991F1A9469F760957095809590958E
:104190009B01AC01BD01CF0108955058BB27AA2750
:1041A0000E94E5200C94C4210E94B62138F00E94A0
:1041B000BD2120F039F49F3F19F426F40C94B3216B
:1041C0000EF4E095E7FB0C94AD21E92F0E94D52178
:1041D00058F3BA17620773078407950720F079F43C
:1041E000A6F50C94F7210EF4E0950B2EBA2FA02D16
:1041F0000B01B90190010C01CA01A0011124FF2794
:10420000591B99F0593F50F4503E68F11A16F0408E
:10421000A22F232F342F4427585FF3CF469537958D
:104220002795A795F0405395C9F77EF41F16BA0B52
:10423000620B730B840BBAF09150A1F0FF0FBB1F00
:10424000661F771F881FC2F70EC0BA0F621F731F49
:10425000841F48F4879577956795B795F7959E3FA6
:1042600008F0B0CF9395880F08F09927EE0F979537
:10427000879508950E9441216894B1110C94F8210A
:1042800008950E94DD2188F09F5798F0B92F992753
:10429000B751B0F0E1F0660F771F881F991F1AF031
:1042A000BA95C9F714C0B13091F00E94F721B1E07E
:1042B00008950C94F721672F782F8827B85F39F07D
:1042C000B93FCCF3869577956795B395D9F73EF4CA
:1042D00090958095709561957F4F8F4F9F4F089572
:1042E000E89409C097FB3EF4909580957095619590
:1042F0007F4F8F4F9F4F9923A9F0F92F96E9BB2746
:104300009395F695879577956795B795F111F8CFC1
:10431000FAF4BB0F11F460FF1BC06F5F7F4F8F4F2C
:104320009F4F16C0882311F096E911C0772321F022
:104330009EE8872F762F05C0662371F096E8862FBA
:1043400070E060E02AF09A95660F771F881FDAF711
:10435000880F9695879597F9089597F99F6780E854
:1043600070E060E008959FEF80EC089500240A94C7
:104370001616170618060906089500240A94121640
:104380001306140605060895092E0394000C11F473
:10439000882352F0BB0F40F4BF2B11F460FF04C020
:1043A0006F5F7F4F8F4F9F4F089557FD9058440F79
:1043B000551F59F05F3F71F04795880F97FB991F84
:1043C00061F09F3F79F08795089512161306140641
:1043D000551FF2CF4695F1DF08C0161617061806CE
:1043E000991FF1CF86957105610508940895E894A9
:1043F000BB2766277727CB0197F908950E940322F0
:1044000008F48FEF0895990F0008550FAA0BE0E804
:10441000FEEF16161706E807F907C0F01216130686
:10442000E407F50798F0621B730B840B950B39F4C6
:104430000A2661F0232B242B252B21F408950A262C
:1044400009F4A140A6958FEF811D811D08958F92DB
:104450009F92AF92BF92CF92DF92EF92FF92CF9353
:10446000DF93EC01688179818A819B8161157105F7
:104470008105910521F464E279ED8BE597E02DE16A
:1044800033EF41E050E00E94832249015A019B0131
:10449000AC01A7EAB1E40E94A2226B017C01ACEE60
:1044A000B4EFA50194010E94B022DC01CB018C0D78
:1044B0009D1DAE1DBF1DB7FF03C00197A109B048E8
:1044C00088839983AA83BB839F77DF91CF91FF90E5
:1044D000EF90DF90CF90BF90AF909F908F90089516
:1044E0000E942722089582E291E00E9427220895E7
:1044F000A0E0B0E08093220190932301A0932401D7
:10450000B09325010895052E97FB1EF400940E9498
:104510009A2257FD07D00E94AB2007FC03D04EF42F
:104520000C949A2250954095309521953F4F4F4FCE
:104530005F4F089590958095709561957F4F8F4F4F
:104540009F4F08950E94B522A59F900DB49F900D96
:10455000A49F800D911D11240895B7FF0C94A222F1
:104560000E94A222821B930B0895A29FB001B39FC9
:10457000C001A39F700D811D1124911DB29F700D6C
:0C458000811D1124911D0895F894FFCFB7
:10458C000300030003000300060002000200050004
:10459C00050002000200050003002C0106000800C3
:0645AC00190001000000EF
:00000001FF
